:100000000C94340018950000189500001895000015
:10001000189500001895000018950000189500002C
:10002000189500000C945C071895000018950000C6
:10003000189500000C94B90618950000189500005A
:100040000C942107189500000C94F21118950000EB
:1000500018950000189500001895000018950000EC
:1000600018950000189500008FEF8DBFC0E0E8E103
:100070004E2E88E08EBFD8E0F6E05F2EA89584B7BC
:10008000082E877F84BF88E1992780936000909332
:100090006000EEEFF7E0A0E0B1E088278D933197A4
:1000A000E9F789E18093C40080E08093C50088E18E
:1000B0008093C100662489E18093C40080E080932E
:1000C000C5007091C0007D7F7093C00088E180936F
:1000D000C10086E08093C2007091C1007068709387
:1000E000C10086E880937A0080E480937C00709160
:1000F0007A00706870937A0074B7777F74BF8BE171
:1001000093E0809360009093600070E070938000B3
:1001100075E07093810071E07093700071E07093EE
:100120006F0071E070936E0070E87FBF8CE291EE1B
:10013000909385008093840077E075BD70E07093A4
:10014000B00075E07093B10072EB7093B2007894D8
:10015000539A249A239A259A0E945410559A5D988E
:10016000569A5E982198299A52985A9A229A2A9ACF
:10017000209A289870917D017F7770937D0170910E
:100180007D017F7B70937D0170917D017F7D7093F8
:100190007D0170917D017F7E70937D010E945410DE
:1001A00081E20E94681088EC0E9468100E948A1008
:1001B000289AE6E5FDE20E94370F0E943E0FE8EE26
:1001C000F2E0A1E2B1E0ED93FC9381E08A9381E05B
:1001D0008A9380E08A93E8EBFAE0882780932501F0
:1001E0000E94461188EE93E00E94620F0E948A10DE
:1001F00083E0809323018AE0809324018827809301
:100200002501EEE6FDE20E94500F84E08093230179
:1002100084E380932401882780932501EAE7FDE2A7
:100220000E94500F80ED97E00E94620FE0E8FDE22F
:100230000E94370F0E943E0F84EF91E00E94620FF0
:100240000E94CE080E943E0F0E943E0FADE7B1E033
:100250008C9186FB16F00C942F010E94AE07199921
:100260000C944501E6E8FDE20E94370F0E943E0F24
:1002700084EF91E00E94620F4A990C9443010E941E
:10028000CE080C9445010E94AB0A4A990C945B017C
:10029000E2EAFDE20E94370F0E943E0F84EF91E0F8
:1002A0000E94620F19990C9459010E94CE080C9477
:1002B0005B010E940B0CADE7B1E08C9184FB16F062
:1002C0000C947001AEE9B1E0ECEBFDE20E941F136B
:1002D00011F00C9470018091600088608093600040
:1002E0000C942601F894FFCF0106060000000000E0
:1002F000000000005F000000000300030000147F06
:10030000147F1400042A7F2A10002313086462005B
:10031000364956205000000300000000001C224116
:10032000000041221C0000002A1C7F1C2A00080833
:100330003E08080000407030000008080808080067
:100340000000606000006010080403003E51494551
:100350003E0000427F400000625149494600224170
:1003600049493600181412117F00274545453900C8
:100370003E454545390001611109070036494949A3
:1003800036000E5151513E0000003636000000404C
:10039000763600000008142200001414141414000F
:1003A0000022140800000201510906003E4955557B
:1003B0000E007C1211127C007F49494936003E41F3
:1003C000414122007F4141221C007F4949494100AF
:1003D0007F09090901003E41415172007F08080868
:1003E0007F0000417F4100002040413F01007F0825
:1003F000142241007F40404060007F020C027F00D9
:100400007F0204087F003E4141413E007F111111EF
:100410000E003E4151617E007F09192946002649A0
:100420004949320001017F0101003F4040403F0047
:100430001F2040201F003F4038403F006314081435
:100440006300070870080700615149454300000038
:100450007F41410003040810600041417F0000001B
:1004600004020102040040404040404001020000FC
:100470000000304A4A3C40007F4848483000384439
:1004800044442000304848487F00385454541800F1
:1004900000087E0900000854545438007F08040402
:1004A000780000487A4000000020403D00007F10A6
:1004B0001028440000007F0000007C047C047800C9
:1004C0007C08040478003844444438007C14141434
:1004D00008000814147C40007C08040408004854F8
:1004E0005454240000043F4400003C4040207C0061
:1004F0001C2040201C003C4030403C004428102878
:1005000044000C5050503C004464544C44000000E3
:100510000836410000007F0000004136080000005E
:1005200008040804000000000000000000000000B3
:1005300000000000000000000000000000000000BB
:1005400000000000000000000000400040004000EB
:10055000000000000000000000000000143E55559F
:100560004100130864026000000000000000000069
:10057000000000000000000000000000000000007B
:10058000000000000000000000000000000000006B
:10059000000000000000000000000000000000005B
:1005A0000000000000000000000000183C3C1800A3
:1005B000000000000000000000000000003C2424B7
:1005C0003C000000000000000000000000000000EF
:1005D000000000000000000000000000000000001B
:1005E000000000000000000000000000000000000B
:1005F00000000000000000000000000000000000FB
:1006000000000000005A24245A00000000000000EE
:100610000000770000000000000000007C555455E9
:1006200054003E415D55413E0000000000000814AA
:100630002A142200020202020E0000000000000044
:10064000000000000000000000000000060909068C
:10065000000000242E240000000000000000000024
:1006600000000000000000000000FC2040403C00B2
:10067000040E7E027E00000008000000385554552C
:1006800018007810207E02000000000000002214F4
:100690002A14080000000000000000000000000014
:1006A0000000000000000002780200007C1211121D
:1006B0007C007F49494930007F49494936007F0124
:1006C00001010100407E417F40007F4949494100CE
:1006D0007F7F7F7F00002241494936007F2010083C
:1006E0007F007F2011087F007F0814224100403ED8
:1006F00001017F007F0204027F007F0808087F005D
:100700003E4141413E007F0101017F007F0909090F
:1007100006003E414141220001017F0101000748DE
:1007200048483F000C127F120C0063140814630049
:100730003F20203F6000070808087F007F407C4082
:100740007F003F203C203F60017F484830007F48C9
:1007500030007F007F4848483000224149493E0030
:100760007F083E413E00462919097F002054545419
:1007700078007854545420007C54545428007C044D
:1007800004040400085454543800385454541800D5
:100790006C1078106C002844545428003C404040B1
:1007A0007C003C4044407C007C10102844004038D1
:1007B00004047C007C0810087C007C1010107C0075
:1007C0003844444438007C0404047C007C14141431
:1007D00008003844444428007C047C0478000C5011
:1007E00050503C0008147C14080044281028440091
:1007F0001C20203C60000C1010107C003C40784015
:100800007C001C2038203C60047C505020007C5030
:1008100020007C007C505050200028445454380064
:100820007C1038443800085434147C00020C180042
:1008300000000000000000000000000000000000B8
:10084000000000000000000000000000F8FEFEF8BC
:1008500000000000000000000067670000000000CA
:1008600000004C7C3C00004C7C3C00000000000080
:10087000000000000000000000000020E0FC3C2020
:10088000E0FC3C200000043C3F07043C3F07000024
:100890000000F0F898FEFE9898100000000008197B
:1008A000197F7F191F0F0000000070D8D8700080DA
:1008B000C0E07038000030381C0E0703396C6C380B
:1008C00000000070F88CC47C3800000000003E7FFF
:1008D00063436F3C386C4400000000004C7C3C00DB
:1008E0000000000000000000000000000000000008
:1008F000000000E0F8FC0E0202000000000000070B
:100900001F3F70404000000000000002020EFCF893
:10091000E00000000000004040703F1F07000000A2
:100920000000003070C0F0F0C0703000000000190E
:100930001D071F1F071D1900000000000000E0E058
:10094000000000000000000303031F1F0303030057
:100950000000000000000000000000000000000097
:100960000098F8780000000000000000000000007F
:10097000000000000000000303030303030303005F
:100980000000000000000000000000000000000067
:10099000007070700000000000000000000080C0C7
:1009A000E070381C0000381C0E0703010000000036
:1009B0000000F0FC0C0686C6663CFCF000000F3F11
:1009C0003663616060303F0F00000018181CFEFEA7
:1009D000000000000000006060607F7F60606000D9
:1009E0000000383C0E060686C6EE7C3800007078A3
:1009F0007C6E6763616060600000181C0E868686EE
:100A000086CEFC78000018387061616161733E1C0D
:100A1000000080C0E070381CFEFE000000000F0FD8
:100A20000C0C0C0C7F7F0C0C0000F0FECEC6C6C672
:100A3000C6C68606000018387060606060713F1F8F
:100A4000000080E0F0B89C8E8686000000001F3F0A
:100A50007361616161733F1E00000606060606862B
:100A6000E67E1E060000000060781E070100000000
:100A700000000078FCCE8686CEFC780000001E3F89
:100A80007361616161733F1E000078FCCE868686CB
:100A900086CEFCF800000060616171391D0F07010E
:100AA0000000000000E0E0E00000000000000000A6
:100AB0000038383800000000305400AA0F00E0F081
:100AC000AA02F000AA0B00E0F0AA09F0E000AA03D5
:100AD00000F0AA02F0E0C000AA0500C0E0F0AA02FF
:100AE000F000AA2300FFAA03FF00AA0B00FFAA033D
:100AF000FF00AA0B00FFAA03FF1F3F7CF8AA01F822
:100B00007C3F1FFFAA03FF00AA230007AA01070FCB
:100B1000AA080F0E00AA030007AA01070FAA080FD0
:100B20000700AA0300070FAA020F00AA020001AAE9
:100B3000010100AA02000FAA020F0700AA3D000847
:100B400038C800C8380800AA010004FC00AA020046
:100B500080AA018000F804AA0204F800AA4000015B
:100B600000AA030001AA04010001AA010100AA01D0
:100B70000001AA020100AA680000080C1FAA081FB1
:100B80000E00AA010000080C1FAA061F111F0E006C
:100B9000AA010000080C1FAA041F11AA02111F0EAF
:100BA00000AA0100080C1F11AA06111F0E00AA01BD
:100BB0000000080C00AA0B001030C0E0AA01E0C041
:100BC000AA02C0E0703818AA01183870E0C0E070BE
:100BD0003818AA01183870E0C0E0703818AA011857
:100BE0003870E0C0E0703818AA01183870E0C0AA68
:100BF00003C0E0AA01E0C00001AA010100AA290087
:100C000001AA01010000103000AA030060F0AA024E
:100C1000F060AA0C60FFAA01FF00AA0100F8FE6FB5
:100C2000676160AA0960F0AA02F06000AA18000FCC
:100C3000AA010F00AA010001070F0E0800AA110067
:100C40000F921F922F923F924F925F927F92AF929C
:100C5000BF920F931F932F933F934F935F936F9385
:100C60007F938F939F93AF93BF93CF93DF93EF9334
:100C7000FF938FB78F930E94000F082F003018F05A
:100C800011F00C9445060C9475060E94060FAEE711
:100C9000B1E08C9300917E010A3081E009F480E09C
:100CA0008F9300917E010D3081E009F480E09F91E7
:100CB0008923882311F40C946706AEE7B1E08C9188
:100CC000AFE7B1E00E94F90E8D9388278C93AFE7D0
:100CD000B1E00E941913082F043110F40C9475062A
:100CE00070917D01706270937D0100917E010A30E8
:100CF00081E009F080E08F93ADE7B1E08C9185FB56
:100D000081E00EF080E09F91892B882311F40C94F0
:100D10009D0670917D017F7D70937D0170917D01B5
:100D2000706170937D01EFE7F1E0AEE9B1E00E9400
:100D3000E212AFE7B1E00E94EA118F918FBFFF91FD
:100D4000EF91DF91CF91BF91AF919F918F917F9163
:100D50006F915F914F913F912F911F910F91BF9094
:100D6000AF907F905F904F903F902F901F900F908B
:100D700008950F921F922F923F924F925F927F920F
:100D8000AF92BF920F931F932F933F934F935F9315
:100D90006F937F938F939F93AF93BF93CF93DF9383
:100DA000EF93FF938FB78F938CE291EE9093850032
:100DB00080938400A6E2B1E00D911D912D913C91AC
:100DC0004FEF50E060E070E00E94A611A6E2B1E0B3
:100DD0000D931D932D933D93A6E2B1E00D911D91CE
:100DE0002D913C9186B5482F5527662777270E947D
:100DF0007912AAE2B1E00D931D932D933D93A6E2E3
:100E0000B1E00E94EC1170E076BD8F918FBFFF9131
:100E1000EF91DF91CF91BF91AF919F918F917F9192
:100E20006F915F914F913F912F911F910F91BF90C3
:100E3000AF907F905F904F903F902F901F900F90BA
:100E400018950F921F922F923F924F925F927F922E
:100E5000AF92BF920F931F932F933F934F935F9344
:100E60006F937F938F939F93AF93BF93CF93DF93B2
:100E7000EF93FF938FB78F93A6E2B1E00E94E50E48
:100E80008F918FBFFF91EF91DF91CF91BF91AF9184
:100E90009F918F917F916F915F914F913F912F9192
:100EA0001F910F91BF90AF907F905F904F903F90B8
:100EB0002F901F900F9018950F921F922F923F9294
:100EC0004F925F927F92AF92BF920F931F932F9397
:100ED0003F934F935F936F937F938F939F93AF93C2
:100EE000BF93CF93DF93EF93FF938FB78F9372EB03
:100EF0007093B200A1E3B1E00E94F20EA1E3B1E071
:100F00000D911C91003951E015070CF002C00C94B2
:100F10009207A1E3B1E00E94EA1170917D01706433
:100F200070937D018F918FBFFF91EF91DF91CF91F2
:100F3000BF91AF919F918F917F916F915F914F91F1
:100F40003F912F911F910F91BF90AF907F905F9035
:100F50004F903F902F901F900F90189570917D01AA
:100F60007F7B70937D0100917C00007F0560009382
:100F70007C000E94CF11A0E7B1E08D939C93EEE03E
:100F8000FDE20E942D15E0E7F1E0D190E080FF2422
:100F900000270E94DB130E948414EDE0F0E0A2E73A
:100FA000B1E00E94E712E2E1FDE20E942D15E2E7C6
:100FB000F1E00E946E130E948414EDE0F0E0A2E7DD
:100FC000B1E00E94E712E6E1FDE20E942D15E2E7A2
:100FD000F1E00E946E130E942B14EDE0F0E0A2E716
:100FE000B1E00E94E712A0E0B6E0AF93BF93E2E762
:100FF000F1E00E946E130E94710F112702E0BF9171
:10100000AF910E943112E0E0F6E0A6E7B1E00E9465
:10101000E212E2E7F1E00E946E13EAE1FDE20E94D3
:101020002D150E94551318F011F00C9419080C940A
:10103000280888E48A9381E08A9380E08A93EAE72B
:10104000FBE08827809325010E9446110C94CD086F
:10105000E2E7F1E00E946E13EEE1FDE20E942D1541
:101060000E94551381E008F480E08F93E2E7F1E0FD
:101070000E946E13EAE1FDE20E942D150E945513B5
:1010800081E010F009F080E09F918923882311F41A
:101090000C94590888E48A9381E08A9380E08A93CB
:1010A000E6E8FBE08827809325010E9446110C9416
:1010B000CD08E2E7F1E00E946E13E2E2FDE20E9459
:1010C0002D150E94551381E008F480E08F93E2E72C
:1010D000F1E00E946E13EEE1FDE20E942D150E94E8
:1010E000551381E010F009F080E09F918923882357
:1010F00011F40C948A0888E48A9381E08A9380E052
:101100008A93E4E9FBE08827809325010E94461139
:101110000C94CD08E2E7F1E00E946E13E2E2FDE2FA
:101120000E942D150E94551310F00C94CD08ADE7C8
:10113000B1E08C9187FB882780F9809580FBADE733
:10114000B1E08C9187F98C93ADE7B1E08C9187FB8E
:1011500016F40C94BA0888E48A9381E08A9380E0BC
:101160008A93E2EBFBE08827809325010E944611D9
:101170000C94CD0888E48A9381E08A9380E08A9376
:10118000E4EAFBE08827809325010E944611E2EC07
:10119000FDE20E94370F0E943E0F089570917D017D
:1011A0007F7B70937D010E948A10E0EDFDE20E943A
:1011B000370F0E943E0FECEDFDE20E94370F0E94B8
:1011C0003E0F0E943E0FE8E1FEE20E94370F0E94B0
:1011D0003E0F82E08093230181E0809324018827E1
:1011E00080932501E0EDFDE20E94500F83E08093A3
:1011F000230181E080932401882780932501E8E280
:10120000FEE20E94500F80E991E00E94620F85E0AB
:101210008093230181E08093240188278093250116
:10122000E8E3FEE20E94500FEAE3FEE20E94370F7D
:101230000E943E0F5E985D982A9A85E08093230174
:1012400081E080932401882780932501E8E3FEE272
:101250000E94500FEAE3FEE20E94370F0E943E0F09
:1012600080E080932E0180E080932F0180E08093C6
:10127000300181E080932E0100912E01063018F09C
:1012800011F00C94B909AFE2B1E08C918F5F8C93AF
:1012900084EF91E00E94620F00912E0146E0049FCE
:1012A000ACE7B1E00C92ACE7B1E08C918F5F8C932E
:1012B00085E08093230180917C018093240188271D
:1012C00080932501E8E3FEE20E94500FEAE3FEE28C
:1012D0000E94370F0E943E0F00912F01023011F043
:1012E0000C94B109A0E3B1E08C918F5F8C9380E006
:1012F00080932F01ECE3FEE20E94370FEAE2F1E077
:10130000A0E0B6E00E948F120E942F0FE2E4FEE2FE
:101310000E94370F0E943E0F00913001033011F000
:101320000C94B109EAE2F1E00E946E130E94F313FB
:10133000A3E3B1E00E947813ECE3FEE20E94370FD2
:10134000E3E3F1E0A0E0B6E00E946E130E94710FAB
:101350000E942F0FE2E4FEE20E94370F0E943E0F30
:101360002A98AEE2B1E08C918F5F8C9310F40C94CC
:101370003C0985E0809323018BE280932401882738
:1013800080932501E8E3FEE20E94500FEAE3FEE2CB
:101390000E94370F0E943E0F84EF91E00E94620F7F
:1013A00085E08093230181E3809324018827809343
:1013B0002501E8E3FEE20E94500FEAE3FEE20E940C
:1013C000370F0E943E0F80E080932F0180E08093D2
:1013D000300189E080932E0100912E010E3018F02B
:1013E00011F00C946B0AAFE2B1E08C918F5F8C939B
:1013F00084EF91E00E94620F00912E0146E0049F6D
:10140000ACE7B1E00C92ACE7B1E08C918F5F8C93CC
:1014100085E08093230180917C01809324018827BB
:1014200080932501E8E3FEE20E94500FEAE3FEE22A
:101430000E94370F0E943E0F00912F01023011F0E1
:101440000C94630AA0E3B1E08C918F5F8C9380E0F1
:1014500080932F01EAE5FEE20E94370FEAE2F1E015
:10146000A0E0B6E00E948F120E942F0FE0E6FEE29D
:101470000E94370F0E943E0F00913001033011F09F
:101480000C94630A80E080933001EAE2F1E00E946C
:101490006E130E94F313A7E3B1E00E947813EAE50C
:1014A000FEE20E94370FE7E3F1E0A0E0B6E00E9421
:1014B0006E130E94710F0E942F0FE0E6FEE20E9461
:1014C000370F0E943E0FAEE2B1E08C918F5F8C939C
:1014D00010F40C94EC090E948A1082E0809323019E
:1014E00081E080932401882780932501E0EDFDE2CF
:1014F0000E94500F83E08093230181E080932401B8
:10150000882780932501EEE7FEE20E94500FEAE86B
:10151000FEE20E94370F0E943E0F80ED97E00E948E
:10152000620F0E948A1085E08093230181E08093FE
:101530002401882780932501E2EAFEE20E94500FF1
:10154000E2EBFEE20E94370F0E943E0F0E943E0F28
:101550000E943E0F089570917D01706470937D012B
:101560000E948A1081E08093230181E0809324010E
:10157000882780932501ECEBFEE20E94500F8EE05D
:101580008A938AE08A9380E08A93E6E0FCE08827E9
:10159000809325010E94461180ED97E00E94620F22
:1015A0005D9A289A2A9A81E080932E0100912E015B
:1015B000043018F011F00C94E90A8AEF90E00E94D0
:1015C000620FAEE2B1E08C918F5F8C9310F40C94BB
:1015D000D60A80E080932E01EAE2F1E00E946E13C9
:1015E0000E94F313ABE3B1E00E947813E8ECFEE253
:1015F0000E94370FEBE3F1E0A0E0B6E00E946E132B
:101600000E94710F0E942F0FEEECFEE20E94370F36
:101610000E943E0FEBE3F1E00E947313E3E3F1E07D
:101620000E946E130E942B14EDE0F0E0A3E4B1E001
:101630000E94E712E3E4F1E00E947313E3E4F1E0B7
:101640000E946E130E948414EDE0F0E0A3E4B1E088
:101650000E94E712E6E2FDE20E942D15E3E4F1E0CC
:101660000E946E130E94C314EDE0F0E0A3E4B1E029
:101670000E94E712E7E3F1E00E947313E3E3F1E075
:101680000E946E130E942B14EDE0F0E0A7E4B1E09D
:101690000E94E712E7E4F1E00E947313E7E4F1E04F
:1016A0000E946E130E948414EDE0F0E0A7E4B1E024
:1016B0000E94E712E6E2FDE20E942D15E7E4F1E068
:1016C0000E946E130E94C314EDE0F0E0A7E4B1E0C5
:1016D0000E94E712E7E4F1E00E947313E3E4F1E013
:1016E0000E946E130E942B14EDE0F0E0A3E4B1E041
:1016F0000E94E712E3E4F1E0AFE4B1E00E94E712F8
:10170000EAE2FDE20E942D15EFE4F1E00E946E1383
:101710000E948414EDE0F0E0AFE4B1E00E94E71233
:10172000AFE4B1E0BA93AA930E94B10D2296ABE563
:10173000B1E0EAEEFEE20E941F1311F40C94C40B18
:1017400086E10E94A011EBE5F1E0A881B9810E9439
:10175000E212ABE5B1E0E2EFFEE20E94C911E881DE
:10176000F981ABE5B1E00E94F90E0E94E21286E138
:10177000481A80E0580A2296ABE5B1E00E94F90EC3
:10178000E6EFFEE20E94C911ABE5B1E00E94310F25
:101790000E943E0F84E08093230181E08093240126
:1017A000882780932501EAEFFEE20E94500F84E033
:1017B0008093230181E08093240188278093250171
:1017C000ABE5B1E00E944A0FAEE2B1E08C918F5FD1
:1017D0008C9388EE93E00E94620F00912E010430FA
:1017E00018F011F00C94F60B0C94EC0A5D9885E05F
:1017F0008093230181E08093240188278093250131
:10180000E2EAFEE20E94500FEAE0FFE20E94370F98
:101810000E943E0F089570917D01706470937D0168
:101820000E948A1081E08093230181E0809324014B
:10183000882780932501E4E1FFE20E94500F8EE0AB
:101840008A938CE08A9380E08A93E8EBFBE0882718
:10185000809325010E94461180ED97E00E94620F5F
:101860005E9A28982A9A81E080932E0100912E0199
:10187000043018F011F00C94490C8AEF90E00E94AB
:10188000620FAEE2B1E08C918F5F8C9310F40C94F8
:10189000360C80E080932E01EAE2F1E00E946E13A4
:1018A0000E94F313AFE3B1E00E947813E0E2FFE29D
:1018B0000E94370FEFE3F1E0A0E0B6E00E946E1364
:1018C0000E94710F0E942F0FEEECFEE20E94370F74
:1018D0000E943E0FEFE3F1E00E947313E3E3F1E0B7
:1018E0000E946E130E942B14EDE0F0E0A3E4B1E03F
:1018F0000E94E712E3E4F1E00E947313E3E4F1E0F5
:101900000E946E130E948414EDE0F0E0A3E4B1E0C5
:101910000E94E712E6E2FDE20E942D15E3E4F1E009
:101920000E946E130E94C314EDE0F0E0A3E4B1E066
:101930000E94E712E7E3F1E00E947313E3E3F1E0B2
:101940000E946E130E942B14EDE0F0E0A7E4B1E0DA
:101950000E94E712E7E4F1E00E947313E7E4F1E08C
:101960000E946E130E948414EDE0F0E0A7E4B1E061
:101970000E94E712E6E2FDE20E942D15E7E4F1E0A5
:101980000E946E130E94C314EDE0F0E0A7E4B1E002
:101990000E94E712E7E4F1E00E947313E3E4F1E050
:1019A0000E946E130E948414EDE0F0E0A3E4B1E025
:1019B0000E94E712E3E3F1E0ABE4B1E00E94E7123A
:1019C000EBE4F1E00E947313EEE2FDE20E942015C9
:1019D0000E948414EDE0F0E0ABE4B1E00E94E71275
:1019E000EBE4F1E00E947313E6E2FDE20E942015B1
:1019F0000E942B14EDE0F0E0ABE4B1E00E94E712AE
:101A0000E2E3FDE20E942D15EBE4F1E00E946E138B
:101A10000E941C16EDE0F0E0ABE4B1E00E94E7129A
:101A2000E3E4F1E0A3E5B1E00E94E712EAE2FDE2BF
:101A30000E942D15E3E5F1E00E946E130E942B1425
:101A4000EDE0F0E0A3E5B1E00E94E712EBE4F1E0A5
:101A50000E947313E3E5F1E00E946E130E94841468
:101A6000EDE0F0E0A3E5B1E00E94E712A3E5B1E00C
:101A7000BA93AA930E94B10D2296ABE5B1E0EAEECB
:101A8000FEE20E941F1311F40C946A0D86E10E947D
:101A9000A011EBE5F1E0A881B9810E94E212ABE56B
:101AA000B1E0E6E2FFE20E94C911E881F981ABE50D
:101AB000B1E00E94F90E0E94E21286E1481A80E02D
:101AC000580A2296ABE5B1E00E94F90EEAE2FFE285
:101AD0000E94C911ABE5B1E00E94310F0E943E0F98
:101AE00084E08093230181E0809324018827809300
:101AF0002501EAEFFEE20E94500F84E0809323016B
:101B000081E080932401882780932501ABE5B1E033
:101B10000E944A0FAEE2B1E08C918F5F8C9388EE09
:101B200093E00E94620F00912E01043018F011F032
:101B30000C949C0D0C944C0C5E9885E080932301D2
:101B400081E080932401882780932501E2EAFEE268
:101B50000E94500FEEE2FFE20E94370F0E943E0FFC
:101B60000895ABE5B1E00E94EA11E881F9810E9495
:101B70006E13E6E3FDE20E942D150E94551318F046
:101B800011F00C94C50D0C94DE0EE881F9810E94D1
:101B90006E13EAE3FDE20E942D150E94551310F02A
:101BA0000C94020EEEE3FDE20E942D15E881F9810E
:101BB0000E946E130E948414EDE0F0E0A7E5B1E00E
:101BC0000E94E712A0E0B6E0AF93BF93E7E5F1E033
:101BD0000E946E130E94710F112702E0BF91AF9116
:101BE0000E943112E0E0F6E0ABE5B1E00E94E212C3
:101BF000ABE5B1E00E94F90EE8E3FFE20E94C911F3
:101C00000C94DC0EE881F9810E946E13E2E4FDE29F
:101C10000E942D150E94551310F00C943F0EE6E41F
:101C2000FDE20E942D15E881F9810E946E130E9449
:101C30008414EDE0F0E0A7E5B1E00E94E712A0E037
:101C4000B6E0AF93BF93E7E5F1E00E946E130E9408
:101C5000710F112702E0BF91AF910E943112E0E0B5
:101C6000F6E0ABE5B1E00E94E212ABE5B1E00E9424
:101C7000F90EECE3FFE20E94C9110C94DC0EE8813E
:101C8000F9810E946E13EAE4FDE20E942D150E9484
:101C9000551310F00C947C0EEEE4FDE20E942D151D
:101CA000E881F9810E946E130E948414EDE0F0E057
:101CB000A7E5B1E00E94E712A0E0B6E0AF93BF93C2
:101CC000E7E5F1E00E946E130E94710F112702E018
:101CD000BF91AF910E943112E0E0F6E0ABE5B1E0D8
:101CE0000E94E212ABE5B1E00E94F90EE0E4FFE2EF
:101CF0000E94C9110C94DC0EE881F9810E946E13D8
:101D0000E6E2FDE20E942D150E94551310F00C949E
:101D1000A90EA0E0B6E0AF93BF93E7E5F1E00E9423
:101D20006E130E94710F112703E0BF91AF910E94C3
:101D30003112E0E0F6E0ABE5B1E00E94E212ABE583
:101D4000B1E00E94F90EE4E4FFE20E94C9110C9494
:101D5000DC0EE881F9810E946E13E2E5FDE20E944B
:101D60002D150E94551310F00C94D60EA0E0B6E08D
:101D7000AF93BF93E7E5F1E00E946E130E94710FED
:101D8000112701E0BF91AF910E943112E0E0F6E02F
:101D9000ABE5B1E00E94E212ABE5B1E00E94F90EC2
:101DA000E8E4FFE20E94C9110C94DC0EABE5B1E05F
:101DB000EAEEFEE20E94C9110C94E40EABE5B1E03C
:101DC000EAEEFEE20E94C91108950D911D912D9138
:101DD0003C910F5F1F4F2F4F3F4F3C932E931E930D
:101DE0000E930895ED91FC91EF5FFF4FFC93EE93FE
:101DF00008958F938D918823E9F711978F91089516
:101E000080912001882309F081E0089580912001CC
:101E1000882309F408950F929F93AF93BF937F9304
:101E2000809120018823E1F3F894809120018A9524
:101E30008093200190911E01A0E0B1E0A90F002441
:101E4000B01D8C9193959E3109F4992790931E01B2
:101E500078947F91BF91AF919F910F900895A0E0EA
:101E6000B6E08D91882311F00CD0FBCF08950E942D
:101E7000E611802D11F005D0FACF08958DE001D044
:101E80008AE00090C00005FEFCCF8093C600089554
:101E9000A0E0B6E08D91882311F009D0FBCF089522
:101EA0000E94E611802D11F002D0FACF08950C9413
:101EB0009A103197F1F70895689462F80895E894BC
:101EC00062F80895EF93FF93EE27E82BE92B31F0AA
:101ED000E0EDF7E03197F1F70197D1F7FF91EF913E
:101EE00008958DE207FD8D938F2D881F802F881F09
:101EF0008F57082F6894F7F8802F87FF15C08095BB
:101F00008395082F80E38D938EE28D93802F8152ED
:101F100028F080E38D9399279C93089544270A9590
:101F2000802F09F196D01FC0805230F09EE49D931F
:101F300081E48D939D93EFCF4427DF92EF92FF9240
:101F40000F938FE1801B11F0082F83D089D09EE280
:101F50009D930F91FF90EF90DF90442703950032FF
:101F600009F4D7CF2BD03F93E2EFFFE138E12F2DDB
:101F70001E2D0D2DFF24EE24DD244427000F111FFC
:101F8000221FA8F42F923F920E94E611102C0E946B
:101F9000E611202C0E94E611302C0E94E6113197A8
:101FA000410DD21CE31CF01C3F902F9001C03396D2
:101FB00031963A9519F73F9107D0AFCFDD0CEE1C63
:101FC000FF1C0A95D9F70895002719E058D08F9380
:101FD000802B11F0039501C08F911A95B9F7802FCE
:101FE000882309F496CF8F91805D8D930A95D9F758
:101FF00092CF0065CD1D80B2E60E40597307A0ACAC
:10200000B90350D6DC01286BEE0094357700CA9AEC
:102010003B0065CD1D00B2E60E0059730700ACB958
:102020000300D6DC01006BEE0000357700009A3B20
:102030000000CD1D0000E60E000073070000B9038C
:102040000000DC010000EE000000770000003B0013
:102050000000F694E794D79447950A95D1F7089530
:1020600000270DD08F9303958F2D8E298D29842BDA
:10207000C1F78F91805D8D930A95D9F74CCF1F934F
:102080000F93002710E2440FDD1CEE1CFF1C001F05
:10209000802F9AE0890B10F0082F43951A9599F735
:1020A000802F0F911F9108955B9884E699270E94D5
:1020B000620F5B9A2D9881E20BD088EC09D086E004
:1020C00007D083E105D080E203D08CE001D00895F1
:1020D0002C9801C02C9A7F9398E0880F10F42B9ACB
:1020E00001C02B980000000000000000000000006C
:1020F0000000000000002D9A000000000000000019
:10210000000000000000000000002D989A9529F7BB
:102110007F91089580E2DCDF80E4DADF80E8D8DFB9
:1021200000E014E58827D6DF1A95E9F70395063015
:10213000D1F70895EF93FF93509123015F9370902F
:102140002401E0912101F09122010E94E611202D4D
:102150000E94E611302D0E94E611002D0E94E6112A
:10216000602D8052482F0E94FD12E40FF51FCC24F1
:102170001124E22E603059F1DD24DA94CD2CFF24B5
:10218000032F0E94E61121F00A95E00FF11D03C014
:10219000F3940A95B1F7FD1408F4DF2CEA9479F76B
:1021A000E22EFF24032F3197C895002021F00A95D5
:1021B000E01BF10903C0F3940A95A9F7FC1408F495
:1021C000CF2CEA9471F7D31611F4D62ECC2470924A
:1021D0002401732F7C1940912401509123015F93B6
:1021E0000E9434115F91603041F0DD2031F05D2DAF
:1021F0000E94E6115A95E1F77D190E94E611802DA3
:1022000050912501552309F08095409124014535D1
:1022100014F40E946A1050912401539550932401A4
:102220007A9559F7EC0DF11D603081F05091250140
:10223000762F8827552309F080950E946A107A9599
:10224000C1F750912401560F50932401509123015E
:102250005395509323012A9509F0B9CF5F9150937C
:102260002301FF91EF9108954A955A9580E230DF5E
:1022700080E4850F2DDF80E8840F2ACF772321F0BB
:10228000AA27BB270C94F3120C94E61111242224E4
:10229000332479910E943E11002D48E00E940913D9
:1022A0000A930E943E110A920A920B8148E00E9412
:1022B00009130B834C81F42E5B81D8DF131479F45E
:1022C0000E943E11202C802D8A3A39F00E943E1146
:1022D000802D8A3A39F031970DC031960BC01A948F
:1022E00069F308C00E943E11802D882311F43297B3
:1022F00001C0102C822D90912501992309F0809521
:102300008F934F2D5B81B2DF8F9144351CF4573092
:102310000CF4E0DEF39489818A95898379F68B81C8
:1023200083958B83888189838A818A958A8311F436
:1023300025960895BFCF0191119121913081089583
:1023400099275A924A92480E591E08950F921F9249
:102350002F92C801D901489F80014A9F90014B9F4D
:10236000202C499F100D211D321D5A9F202C589F53
:10237000100D211D321D599F200D311D689F200D0C
:10238000311D699F300D789F300D2F901F900F9059
:1023900008950E94E6110D920020D9F708957091DA
:1023A0007A00706470937A0000907A0006FCFCCF8B
:1023B00070917A00706470937A0000907A0006FC45
:1023C000FCCF80917800909179000895C89531965E
:1023D0000020089582E001C084E099279D938A95AA
:1023E000E9F708957F930F93AF93BF938F939F93D4
:1023F0008FB78F93E894809120010EE1081B29F498
:102400009091C6000E945C0F14C000911F01A0E0D3
:10241000B1E077279091C600A00FB71F9C936894F6
:1024200083958093200103950E3109F400270093D2
:102430001F010E9420068F918FBF9F918F91BF91A6
:10244000AF910F917F91189599278D91939588233E
:10245000E1F7939511968C9311978E919A95D1F7F8
:102460000895EA2FFB2F00244C918D9103948E3216
:10247000E1F711248D9113948823E1F71A94101633
:1024800040F41197202F2119239580E38D932A95ED
:10249000E9F7113039F59927AE2FBF2FA00DB91FDD
:1024A000A00FB91F8C919C93853308F421C031E0B3
:1024B0008E918E32E9F38D3241F0830F8A3319F415
:1024C00080E331E001C033278C93AE1789F73323C3
:1024D00041F0AE2FBF2FB8DF81E34D3209F43196C2
:1024E000808308958827E00DF81FE00FF81F808390
:1024F0000895040F151F261F371F0895000F111F81
:10250000221F331F089500951095209530950F5F79
:102510001F4F2F4F3F4F0895019110810FC00E9410
:102520009B110EC00E949B1110C00191108117FFDA
:1025300005C03FEF2FEF04C000811127222733276A
:1025400037FF03C0E0DF8DE28D93CF92DF92EF92F1
:10255000AA24BB24CC24DD24EE2440E2EAE0FF27B9
:1025600055E093E38081890F87FD9F7083FD907F05
:10257000891B81935A95A9F7C1DFAA1CBB1CCC1CEF
:10258000DD1CEE1C4A9551F7E894EFE0FF2782919D
:102590000CD0EB30E0F71EF068948A2D0AD0882723
:1025A0008D93EF90DF90CF900895982F829501D072
:1025B000892F8F70805D26F0803309F40895689428
:1025C0008D93089581918D938823E1F7089594E088
:1025D00081918D939A95E1F70895F999FECFE1BD28
:1025E000F2BD3196089591E001C092E0F6DFF89ACD
:1025F00080B58D939A95D1F70895FF935527F8E00C
:10260000469508F4500F57954795FA95D1F7FF91E5
:102610000895FF93881BF9E0001FFA9511F4FF91CC
:102620000895881F841B18F4840F8894F5CF0894AC
:10263000F3CF8FEF83959D919923E1F708956894E7
:1026400001C0E894AF93BF938D9116F0919103C0B0
:102650000E94E611902D891718F011F48823A1F734
:10266000BF91AF910895B7FE089590E8B91611F49F
:10267000D0FE08959FEFD91AE90AF90A09F40395E3
:10268000089588E00FB6F8945A924A92E42DF52DF9
:10269000A42DB52D480E8827581E0FBE08950FB6DD
:1026A000F894499059900FBE08950F928F939F937D
:1026B000D216E306F4060FB680E890E88027952747
:1026C0000FBE890739F00FB6892B87FD02C081E064
:1026D00008260FBE9F918F910F900895D190E190A1
:1026E000F190019108952191319141915191089575
:1026F000DD92ED92FD920C930895502F2D2D3E2DDD
:102700004F2D612F0895EADF992711278F2D880F0C
:1027100080E8F82A802F881F08F41FEF41F08F57B8
:10272000082F07FD04C0003240F08FEF01C088275A
:10273000982FD82EE82EF82E09C08FE1801B082F85
:10274000F694E794D79497950A95D1F7112351F011
:102750009095D094E094F09481E0980F8827D81E4B
:10276000E81EF81E0F2DFE2CED2CD92E0895D094C6
:10277000E094F09491E0D90E9927E91EF91E109586
:102780000895652F90E8440F551F5927990F4795D5
:102790006078102F90E8FF0C001F0927990FF7941D
:1027A000107800380895FF0C90E89027110F979546
:1027B000F794092F08951127BD2CDE2CEF2CF02E55
:1027C0000EE1FF2039F4FE2CED2CDB2CBB2408504D
:1027D000C2F775C032F00A95BB0CDD1CEE1CFF1C65
:1027E000F9CF41DFE0CF102FBD2CDE2CEF2CF02EE7
:1027F00011234AF4B094D094E094F0949FEFB91A66
:10280000D90AE90AF90A0EE1FF2039F4FE2CED2C71
:10281000DB2CBB240850C2F752C032F00A95BB0C27
:10282000DD1CEE1CFF1CF9CF1EDFBDCF2DEC3CECF8
:102830004CEC5DE366270FC051DF5FDFDD24EE2443
:1028400090E8F92E0FE307C04EDF05C0222733279B
:1028500040E251E46627552351F1002381F191DFD5
:1028600071F11627005850580894050B18F407FD0D
:1028700003C025C007FD23C0469537952795F694DC
:10288000E794D79425D0FF202AF0DD0CEE1CFF1C26
:10289000015073F09D2D969548F0DD203AF4EE201E
:1028A0002AF491E0D90E9927E91EF91E7CCF07C0C2
:1028B0009FE7092FF92A9FEFD92EE92E0895DD24ED
:1028C000EE24FF240027112708950FE79FEFF2CF92
:1028D0009F929924AA24BB2488E1D216E306F40629
:1028E00028F0D21AE30AF40A089401C08894991CCB
:1028F000AA1CBB1CDD0CEE1CFF1C8A9571F7D92CA1
:10290000EA2CFB2C9F9008953CDFD9F05038C9F099
:1029100016270058952F90580894091F12F418F4A0
:102920000EC008F00EC00FD0FF202AF0BB0CDD1C3B
:10293000EE1CFF1C02C0039513F095DE34CF0C94FF
:1029400058140C945F149F92FF92EF928D2DFF24E8
:10295000EE24DD24BB2493E0849F1001829FB00C01
:10296000D11CE21CF31C839FD00CE11C2224F21C1E
:102970009A9531F0BD2CDE2CEF2CFF248F91ECCFFB
:102980009F900895B0DEFDDE503829F090E8692769
:102990000CC00AF045D007CF5FE322273327442736
:1029A00001C0A1DEEEDE5038B1F3003899F3902F6C
:1029B000951B8BF312F434D0FACF983118F02227FC
:1029C00033274427983028F0232F342F442798505A
:1029D000F9CF992329F04695379527959A95D9F7F8
:1029E000912F962742F014D0B0F6F794E794D7943D
:1029F0000F5F8BF65DCF10D051F008F4B8DEFF20EA
:102A000052F2DD0CEE1CFF1C0150CBF751CF57CF1B
:102A1000D20EE31EF41E0895D21AE30AF40A0895B2
:102A2000DF92EF92FF920F931F93D22EE32EF42E9C
:102A3000052F162F6F915F914F913F912F91089520
:102A40000E94E611D02C0E94E611E02C0E94E611B3
:102A5000F02C0E94E611002D08950E94E611202D11
:102A60000E94E611302D0E94E611402D0E94E611D1
:102A7000502D089500240D280E280F28002A00202C
:102A800008952CDE7EDE0395AAF087E1DD0CEE1CB6
:102A9000FF1C8A9589F00A95CAF7FF205AF0002496
:102AA0000D280E280F28002039F00A95DD0CEE1CA9
:102AB000FF1CDAF70A9577CE02CF01CF0FDE002395
:102AC000E2F30E943A1519F4F3DE0068089585E0F8
:102AD000D9DDFF0C001F04830FE70695F79412D190
:102AE000506860DF05DE139721E438E743ED5BEBC8
:102AF0000BDF27E831ED43E15DE39AD02EE03CE3C4
:102B000043EC5DEB95D022E83DEA4BE25EE390D0EA
:102B10002CEE32E846E75EEB8BD020E931EE49EA55
:102B20005EE386D020E83FEE4FEF5EEB81D024ECF1
:102B30003FEF4FE75FE37CD0DBDD139784818F5756
:102B400099F02AF4D82E0FEFE02EF02E04C0D82EE4
:102B5000EE24FF24002747DE28E132E741E35FE36C
:102B6000D3DEC1DD34971EDF9ACDA2DE98CDB6DD6F
:102B700086E088DD05830F772BE33AEA48EB5FE3D5
:102B8000C3DEB6DD139741D028F4858188236AF728
:102B900096DE85CD8F778483A1DD349773DFA8DD42
:102BA000139723E632E446E357EBAEDE29ED37EA2E
:102BB0004AE159E33DD026E538E14EEA5AEB38D0F8
:102BC00026E53CE84DE15CE333D02DEC37E543E608
:102BD0005DEB2ED02DEE3DEF45E75EE329D028E1F9
:102BE00032E741E35FEB24D08DD0DCDE86DDDD24EF
:102BF000EE24FF2404818FE7080F0695F7942BDE5F
:102C00008581881F08F419DE4ACD0E94C1138827E8
:102C1000039512F48894089507301AF0812F0894D0
:102C20000895FF1C881F0A95E2F7812B8894089568
:102C3000B9DE59DD349768CE0F93FF92EF92EDB76E
:102C4000FEB7DF925F934F933F93ADB7BEB72F931D
:102C500006D0EDB7FEB73896EDBFFEBF08958827C2
:102C60008A93FA93EA93BA93AA930E946E13EA2F77
:102C7000FB2F0E9473130E94C113503819F40038BF
:102C8000B1F13BC0003819F457FD2CC02DC00F37EF
:102C900071F15F3761F117FF11C0E881F9810E947E
:102CA00083138827D0FA87F98C830E94F313E88175
:102CB000F9810E9473130E945513C9F4EA81FB81C4
:102CC0000E946E130F770E945F15E881F9810E94C0
:102CD00073130E9484140E94B8158C8187FB07F936
:102CE000259608950FE701C00027882702C00FE747
:102CF0008FEFF82EE82ED82EF3CF0FE380E8F82ED2
:102D00008827F8CF5FE340E8332722270895A4708F
:102D10009D40D7A3004000007A44CDCC04419A994D
:102D2000F9406666E6400000803F7A438A30DB0F58
:102D3000C94000000040000000005F708930A5D449
:102D40006853BD378635286B6E4E6F12833A002468
:102D50007449000020414C432D4D657465722E6905
:102D60006F436F6E6E65637465642E4F4B00696FC1
:102D7000436F6E6E656374656400323032300000FC
:102D80005265616479004D6561737572696E672083
:102D900043617061636974616E6365203E3E3E3ECF
:102DA00000004D6561737572696E6720496E6475C8
:102DB0006374616E6365203E3E3E3E007273742113
:102DC000000042617474657279206C6F7720210075
:102DD00043616C6962726174696F6E006D616B65ED
:102DE000207375726520746F2072656D6F76652033
:102DF000616E79204C206F7220432066726F6D20C7
:102E0000746865204D6561737572696E67205465DD
:102E1000726D696E616C7300706C656173652077AB
:102E2000616974202E2E2E00706C656173652077A9
:102E3000616974202E2E0000C6005E0046313D20E0
:102E40000000205B487A5D2028626173652066720D
:102E5000657175656E637929000046323D2000007A
:102E6000205B487A5D202863616C696272617469D5
:102E70006F6E206672657175656E63792900636F88
:102E80006D706C6574652021000043616C6962722D
:102E90006174696F6E20636F6D706C65746520215D
:102EA00000004C2D4D6F64652020432D4D6F6465EF
:102EB00000004320446F6E65202100004361706173
:102EC000636974616E63650046333D200000205BDA
:102ED000487A5D20286672657175656E6379206633
:102EE0006F7220435F64657429004572726F7220AF
:102EF0002100433D2000465D0000202020202020AE
:102F000020202020202020202000434D20446F6ED0
:102F100065202100496E64756374616E63652000ED
:102F200046343D2000004C3D2000485D00004C4DE3
:102F300020446F6E65202100205B7000205B6E00D6
:0C2F4000205B7500205B6D00205B000032
:00000001FF
